:020000040800F2
:1000000000800120E10400083105000831050008E6
:100010003105000831050008310500080000000026
:100020000000000000000000000000003105000892
:10003000310500080000000031050008E902000851
:1000400000000000310500083105000831050008F6
:1000500031050008310500083105000831050008A8
:1000600031050008310500083105000800000000D6
:100070000000000000000000000000000000000080
:100080000000000000000000310500080000000032
:100090000000000000000000000000003105000822
:1000A0003105000831050008310500083105000858
:1000B0003105000831050008000000003105000886
:1000C0003105000831050008310500083105000838
:1000D00031050008000000000000000000000000E2
:1000E0003105000831050008310500080000000056
:1000F0000000000000000000000000000000000000
:100100000000000031050008000000003105000873
:1001100000000000000000000000000000000000DF
:1001200000000000000000000000000000000000CF
:1001300000000000000000000000000000000000BF
:100140000000000000000000000000003105000871
:10015000000000000000000000000000000000009F
:100160003105000831050008000000000000000013
:10017000000000000000000000000000000000007F
:100180000000000031050008000000000000000031
:04019000310500082D
:1001940010B5054C237833B9044B13B10448AFF3BD
:1001A40000800123237010BD0C000020000000001B
:1001B4007C05000808B5034B1BB103490348AFF3A2
:1001C400008008BD00000000100000207C0500082D
:1001D40080B483B000AF03463960FB7197F90730F0
:1001E400002B0ADB3B68DAB20C4997F9073012019D
:1001F400D2B20B4483F800230AE03B68DAB2084920
:10020400FB7903F00F03043B1201D2B20B441A76BC
:1002140000BF0C37BD465DF8047B704700E100E089
:1002240000ED00E080B582B000AF78607B68013BF0
:10023400B3F1807F01D301230FE00A4A7B68013BBD
:1002440053600F214FF0FF30FFF7C2FF054B002230
:100254009A60044B07221A60002318460837BD46EB
:1002640080BD00BF10E000E080B500AF1A4B1B6BEF
:10027400194A43F005031363184B1B681A68174B9C
:100284001B6822F440621A60144B1B681A68134BF3
:100294001B6842F480621A604FF47A50FFF7C2FF81
:1002A40000F02EF802460E4B83FB02135911D317AC
:1002B400CB1A4FF4FA7101FB03F3D31A002BEFD1DD
:1002C400064B1B685A69054B1B6882F020025A6171
:1002D400642000F021F8E3E7003802400000002029
:1002E400D34D621080B400AF044B1B680133034A42
:1002F400136000BFBD465DF8047B704728000020F2
:1003040080B400AF034B1B681846BD465DF8047B00
:10031400704700BF2800002080B483B000AF78602D
:10032400154B1B681A68144B1B6822F001021A60F3
:100334007B68013B4FF47A5202FB03F20E4B1B68BD
:100344005A600D4B1B6800229A600B4B1B681A689D
:10035400094B1B6842F001021A6000BF064B1B6880
:100364001B6803F48033B3F5803FF7D100BF0C372B
:10037400BD465DF8047B70470400002080B400AFE4
:10038400164BD3F88830154A43F47003C2F888300A
:10039400134B1B68124A43F001031360104B0022F5
:1003A4009A600F4B1B680E4A23F0847323F4803346
:1003B40013600B4B0B4A5A60094B1B68084A23F421
:1003C40080231360064B0022DA60044B4FF0006276
:1003D4009A6000BFBD465DF8047B704700ED00E005
:1003E400003802401030002480B487B000AF0023EE
:1003F4003B6100237B610223FB600023BB6002237B
:100404007B60314B9B6803F00C033B613B69042B1D
:1004140007D0082B09D0002B3DD12C4B2C4A1A6055
:100424003DE02A4B2B4A1A6039E0274B5B689B0D51
:1004340003F00103BB60244B5B6803F03F037B6064
:10044400BB68002B0CD0234A7B68B2FBF3F31E4A33
:1004540052689209C2F3080202FB03F37B610BE0CA
:100464001B4A7B68B2FBF3F3174A52689209C2F342
:10047400080202FB03F37B61134B5B681B0C03F064
:10048400030301335B00FB607A69FB68B2FBF3F39F
:100494000E4A136003E00D4B0D4A1A6000BF0A4B6D
:1004A4009B681B0903F00F030B4AD35C3B61074BAA
:1004B4001A683B6922FA03F3044A136000BF1C372D
:1004C400BD465DF8047B70470038024008000020F8
:1004D4000024F40000127A00940500080D488546B3
:1004E4000D480E490E4A002302E0D458C450043388
:1004F400C4188C42F9D30B4A0B4C002301E013605F
:100504000432A242FBD3FFF739FF00F011F8FFF7E2
:10051400ABFEFEE700800120000000200C0000205C
:10052400B40500080C0000202C000020FEE70000A9
:1005340070B50D4E0D4CA41BA4100025A54209D185
:100544000B4E0C4C00F018F8A41BA4100025A54277
:1005540005D170BD56F8253098470135EEE756F8B9
:10056400253098470135F2E7AC050008AC050008D2
:10057400AC050008B0050008F8B500BFF8BC08BC1D
:100584009E467047F8B500BFF8BC08BC9E4670474D
:10059400000000000000000001020304060708092F
:0805A400000000000102030445
:0405AC00B901000889
:0405B00095010008A9
:0C05B4000000024010E000E00024F40011
:04000005080004E10A
:00000001FF
